{
  "_format": "hh-sol-artifact-1",
  "contractName": "StakeborgNFTTicket",
  "sourceName": "contracts/StakeborgNFTTicket.sol",
  "abi": [
    {
      "inputs": [],
      "stateMutability": "nonpayable",
      "type": "constructor"
    },
    {
      "anonymous": false,
      "inputs": [
        {
          "indexed": false,
          "internalType": "bytes32",
          "name": "roleId",
          "type": "bytes32"
        },
        {
          "indexed": false,
          "internalType": "bytes32",
          "name": "adminRoleId",
          "type": "bytes32"
        }
      ],
      "name": "AdminRoleSet",
      "type": "event"
    },
    {
      "anonymous": false,
      "inputs": [
        {
          "indexed": true,
          "internalType": "address",
          "name": "owner",
          "type": "address"
        },
        {
          "indexed": true,
          "internalType": "address",
          "name": "approved",
          "type": "address"
        },
        {
          "indexed": true,
          "internalType": "uint256",
          "name": "tokenId",
          "type": "uint256"
        }
      ],
      "name": "Approval",
      "type": "event"
    },
    {
      "anonymous": false,
      "inputs": [
        {
          "indexed": true,
          "internalType": "address",
          "name": "owner",
          "type": "address"
        },
        {
          "indexed": true,
          "internalType": "address",
          "name": "operator",
          "type": "address"
        },
        {
          "indexed": false,
          "internalType": "bool",
          "name": "approved",
          "type": "bool"
        }
      ],
      "name": "ApprovalForAll",
      "type": "event"
    },
    {
      "anonymous": false,
      "inputs": [
        {
          "indexed": true,
          "internalType": "bytes32",
          "name": "role",
          "type": "bytes32"
        },
        {
          "indexed": true,
          "internalType": "bytes32",
          "name": "previousAdminRole",
          "type": "bytes32"
        },
        {
          "indexed": true,
          "internalType": "bytes32",
          "name": "newAdminRole",
          "type": "bytes32"
        }
      ],
      "name": "RoleAdminChanged",
      "type": "event"
    },
    {
      "anonymous": false,
      "inputs": [
        {
          "indexed": true,
          "internalType": "bytes32",
          "name": "role",
          "type": "bytes32"
        },
        {
          "indexed": true,
          "internalType": "address",
          "name": "account",
          "type": "address"
        },
        {
          "indexed": true,
          "internalType": "address",
          "name": "sender",
          "type": "address"
        }
      ],
      "name": "RoleGranted",
      "type": "event"
    },
    {
      "anonymous": false,
      "inputs": [
        {
          "indexed": true,
          "internalType": "bytes32",
          "name": "role",
          "type": "bytes32"
        },
        {
          "indexed": true,
          "internalType": "address",
          "name": "account",
          "type": "address"
        },
        {
          "indexed": true,
          "internalType": "address",
          "name": "sender",
          "type": "address"
        }
      ],
      "name": "RoleRevoked",
      "type": "event"
    },
    {
      "anonymous": false,
      "inputs": [
        {
          "indexed": true,
          "internalType": "address",
          "name": "from",
          "type": "address"
        },
        {
          "indexed": true,
          "internalType": "address",
          "name": "to",
          "type": "address"
        },
        {
          "indexed": true,
          "internalType": "uint256",
          "name": "tokenId",
          "type": "uint256"
        }
      ],
      "name": "Transfer",
      "type": "event"
    },
    {
      "inputs": [],
      "name": "DEFAULT_ADMIN_ROLE",
      "outputs": [
        {
          "internalType": "bytes32",
          "name": "",
          "type": "bytes32"
        }
      ],
      "stateMutability": "view",
      "type": "function"
    },
    {
      "inputs": [],
      "name": "EVENT_ADMIN_ROLE",
      "outputs": [
        {
          "internalType": "bytes32",
          "name": "",
          "type": "bytes32"
        }
      ],
      "stateMutability": "view",
      "type": "function"
    },
    {
      "inputs": [],
      "name": "VOLUNTEER_ROLE",
      "outputs": [
        {
          "internalType": "bytes32",
          "name": "",
          "type": "bytes32"
        }
      ],
      "stateMutability": "view",
      "type": "function"
    },
    {
      "inputs": [
        {
          "internalType": "address",
          "name": "account",
          "type": "address"
        }
      ],
      "name": "addAdmin",
      "outputs": [],
      "stateMutability": "nonpayable",
      "type": "function"
    },
    {
      "inputs": [
        {
          "internalType": "address",
          "name": "account",
          "type": "address"
        }
      ],
      "name": "addEventAdmin",
      "outputs": [],
      "stateMutability": "nonpayable",
      "type": "function"
    },
    {
      "inputs": [
        {
          "internalType": "address",
          "name": "account",
          "type": "address"
        }
      ],
      "name": "addVolunteer",
      "outputs": [],
      "stateMutability": "nonpayable",
      "type": "function"
    },
    {
      "inputs": [
        {
          "internalType": "address",
          "name": "to",
          "type": "address"
        },
        {
          "internalType": "uint256",
          "name": "tokenId",
          "type": "uint256"
        }
      ],
      "name": "approve",
      "outputs": [],
      "stateMutability": "nonpayable",
      "type": "function"
    },
    {
      "inputs": [],
      "name": "availableTicketCount",
      "outputs": [
        {
          "internalType": "uint256",
          "name": "",
          "type": "uint256"
        }
      ],
      "stateMutability": "view",
      "type": "function"
    },
    {
      "inputs": [],
      "name": "availableTickets",
      "outputs": [
        {
          "internalType": "uint256",
          "name": "",
          "type": "uint256"
        }
      ],
      "stateMutability": "view",
      "type": "function"
    },
    {
      "inputs": [
        {
          "internalType": "address",
          "name": "owner",
          "type": "address"
        }
      ],
      "name": "balanceOf",
      "outputs": [
        {
          "internalType": "uint256",
          "name": "",
          "type": "uint256"
        }
      ],
      "stateMutability": "view",
      "type": "function"
    },
    {
      "inputs": [
        {
          "internalType": "address",
          "name": "_addr",
          "type": "address"
        }
      ],
      "name": "checkIn",
      "outputs": [],
      "stateMutability": "nonpayable",
      "type": "function"
    },
    {
      "inputs": [
        {
          "internalType": "uint256",
          "name": "",
          "type": "uint256"
        }
      ],
      "name": "checkIns",
      "outputs": [
        {
          "internalType": "bool",
          "name": "",
          "type": "bool"
        }
      ],
      "stateMutability": "view",
      "type": "function"
    },
    {
      "inputs": [],
      "name": "closeSale",
      "outputs": [],
      "stateMutability": "nonpayable",
      "type": "function"
    },
    {
      "inputs": [
        {
          "internalType": "address",
          "name": "checkThisAddress",
          "type": "address"
        }
      ],
      "name": "confirmOwnership",
      "outputs": [
        {
          "internalType": "bool",
          "name": "",
          "type": "bool"
        }
      ],
      "stateMutability": "view",
      "type": "function"
    },
    {
      "inputs": [
        {
          "internalType": "address payable",
          "name": "_to",
          "type": "address"
        }
      ],
      "name": "destroySmartContract",
      "outputs": [],
      "stateMutability": "nonpayable",
      "type": "function"
    },
    {
      "inputs": [
        {
          "internalType": "uint256",
          "name": "tokenId",
          "type": "uint256"
        }
      ],
      "name": "getApproved",
      "outputs": [
        {
          "internalType": "address",
          "name": "",
          "type": "address"
        }
      ],
      "stateMutability": "view",
      "type": "function"
    },
    {
      "inputs": [
        {
          "internalType": "bytes32",
          "name": "role",
          "type": "bytes32"
        }
      ],
      "name": "getRoleAdmin",
      "outputs": [
        {
          "internalType": "bytes32",
          "name": "",
          "type": "bytes32"
        }
      ],
      "stateMutability": "view",
      "type": "function"
    },
    {
      "inputs": [
        {
          "internalType": "bytes32",
          "name": "role",
          "type": "bytes32"
        },
        {
          "internalType": "uint256",
          "name": "index",
          "type": "uint256"
        }
      ],
      "name": "getRoleMember",
      "outputs": [
        {
          "internalType": "address",
          "name": "",
          "type": "address"
        }
      ],
      "stateMutability": "view",
      "type": "function"
    },
    {
      "inputs": [
        {
          "internalType": "bytes32",
          "name": "role",
          "type": "bytes32"
        }
      ],
      "name": "getRoleMemberCount",
      "outputs": [
        {
          "internalType": "uint256",
          "name": "",
          "type": "uint256"
        }
      ],
      "stateMutability": "view",
      "type": "function"
    },
    {
      "inputs": [
        {
          "internalType": "bytes32",
          "name": "role",
          "type": "bytes32"
        },
        {
          "internalType": "address",
          "name": "account",
          "type": "address"
        }
      ],
      "name": "grantRole",
      "outputs": [],
      "stateMutability": "nonpayable",
      "type": "function"
    },
    {
      "inputs": [
        {
          "internalType": "bytes32",
          "name": "role",
          "type": "bytes32"
        },
        {
          "internalType": "address",
          "name": "account",
          "type": "address"
        }
      ],
      "name": "hasRole",
      "outputs": [
        {
          "internalType": "bool",
          "name": "",
          "type": "bool"
        }
      ],
      "stateMutability": "view",
      "type": "function"
    },
    {
      "inputs": [
        {
          "internalType": "address",
          "name": "account",
          "type": "address"
        }
      ],
      "name": "isAdmin",
      "outputs": [
        {
          "internalType": "bool",
          "name": "",
          "type": "bool"
        }
      ],
      "stateMutability": "view",
      "type": "function"
    },
    {
      "inputs": [
        {
          "internalType": "address",
          "name": "owner",
          "type": "address"
        },
        {
          "internalType": "address",
          "name": "operator",
          "type": "address"
        }
      ],
      "name": "isApprovedForAll",
      "outputs": [
        {
          "internalType": "bool",
          "name": "",
          "type": "bool"
        }
      ],
      "stateMutability": "view",
      "type": "function"
    },
    {
      "inputs": [
        {
          "internalType": "address",
          "name": "account",
          "type": "address"
        }
      ],
      "name": "isEventAdmin",
      "outputs": [
        {
          "internalType": "bool",
          "name": "",
          "type": "bool"
        }
      ],
      "stateMutability": "view",
      "type": "function"
    },
    {
      "inputs": [
        {
          "internalType": "address",
          "name": "account",
          "type": "address"
        }
      ],
      "name": "isVolunteer",
      "outputs": [
        {
          "internalType": "bool",
          "name": "",
          "type": "bool"
        }
      ],
      "stateMutability": "view",
      "type": "function"
    },
    {
      "inputs": [],
      "name": "mint",
      "outputs": [],
      "stateMutability": "payable",
      "type": "function"
    },
    {
      "inputs": [],
      "name": "mintPrice",
      "outputs": [
        {
          "internalType": "uint256",
          "name": "",
          "type": "uint256"
        }
      ],
      "stateMutability": "view",
      "type": "function"
    },
    {
      "inputs": [],
      "name": "name",
      "outputs": [
        {
          "internalType": "string",
          "name": "",
          "type": "string"
        }
      ],
      "stateMutability": "view",
      "type": "function"
    },
    {
      "inputs": [],
      "name": "openSale",
      "outputs": [],
      "stateMutability": "nonpayable",
      "type": "function"
    },
    {
      "inputs": [
        {
          "internalType": "uint256",
          "name": "tokenId",
          "type": "uint256"
        }
      ],
      "name": "ownerOf",
      "outputs": [
        {
          "internalType": "address",
          "name": "",
          "type": "address"
        }
      ],
      "stateMutability": "view",
      "type": "function"
    },
    {
      "inputs": [
        {
          "internalType": "address",
          "name": "account",
          "type": "address"
        }
      ],
      "name": "removeEventAdmin",
      "outputs": [],
      "stateMutability": "nonpayable",
      "type": "function"
    },
    {
      "inputs": [
        {
          "internalType": "address",
          "name": "account",
          "type": "address"
        }
      ],
      "name": "removeVolunteer",
      "outputs": [],
      "stateMutability": "nonpayable",
      "type": "function"
    },
    {
      "inputs": [],
      "name": "renounceAdmin",
      "outputs": [],
      "stateMutability": "nonpayable",
      "type": "function"
    },
    {
      "inputs": [
        {
          "internalType": "bytes32",
          "name": "role",
          "type": "bytes32"
        },
        {
          "internalType": "address",
          "name": "account",
          "type": "address"
        }
      ],
      "name": "renounceRole",
      "outputs": [],
      "stateMutability": "nonpayable",
      "type": "function"
    },
    {
      "inputs": [
        {
          "internalType": "bytes32",
          "name": "role",
          "type": "bytes32"
        },
        {
          "internalType": "address",
          "name": "account",
          "type": "address"
        }
      ],
      "name": "revokeRole",
      "outputs": [],
      "stateMutability": "nonpayable",
      "type": "function"
    },
    {
      "inputs": [
        {
          "internalType": "address",
          "name": "from",
          "type": "address"
        },
        {
          "internalType": "address",
          "name": "to",
          "type": "address"
        },
        {
          "internalType": "uint256",
          "name": "tokenId",
          "type": "uint256"
        }
      ],
      "name": "safeTransferFrom",
      "outputs": [],
      "stateMutability": "nonpayable",
      "type": "function"
    },
    {
      "inputs": [
        {
          "internalType": "address",
          "name": "from",
          "type": "address"
        },
        {
          "internalType": "address",
          "name": "to",
          "type": "address"
        },
        {
          "internalType": "uint256",
          "name": "tokenId",
          "type": "uint256"
        },
        {
          "internalType": "bytes",
          "name": "_data",
          "type": "bytes"
        }
      ],
      "name": "safeTransferFrom",
      "outputs": [],
      "stateMutability": "nonpayable",
      "type": "function"
    },
    {
      "inputs": [
        {
          "internalType": "address",
          "name": "operator",
          "type": "address"
        },
        {
          "internalType": "bool",
          "name": "approved",
          "type": "bool"
        }
      ],
      "name": "setApprovalForAll",
      "outputs": [],
      "stateMutability": "nonpayable",
      "type": "function"
    },
    {
      "inputs": [
        {
          "internalType": "bytes4",
          "name": "interfaceId",
          "type": "bytes4"
        }
      ],
      "name": "supportsInterface",
      "outputs": [
        {
          "internalType": "bool",
          "name": "",
          "type": "bool"
        }
      ],
      "stateMutability": "view",
      "type": "function"
    },
    {
      "inputs": [],
      "name": "symbol",
      "outputs": [
        {
          "internalType": "string",
          "name": "",
          "type": "string"
        }
      ],
      "stateMutability": "view",
      "type": "function"
    },
    {
      "inputs": [],
      "name": "ticketSaleIsActive",
      "outputs": [
        {
          "internalType": "bool",
          "name": "",
          "type": "bool"
        }
      ],
      "stateMutability": "view",
      "type": "function"
    },
    {
      "inputs": [
        {
          "internalType": "address",
          "name": "",
          "type": "address"
        },
        {
          "internalType": "uint256",
          "name": "",
          "type": "uint256"
        }
      ],
      "name": "ticketsHolders",
      "outputs": [
        {
          "internalType": "uint256",
          "name": "id",
          "type": "uint256"
        },
        {
          "internalType": "bool",
          "name": "isChecked",
          "type": "bool"
        }
      ],
      "stateMutability": "view",
      "type": "function"
    },
    {
      "inputs": [
        {
          "internalType": "uint256",
          "name": "ticketId",
          "type": "uint256"
        }
      ],
      "name": "tokenURI",
      "outputs": [
        {
          "internalType": "string",
          "name": "",
          "type": "string"
        }
      ],
      "stateMutability": "view",
      "type": "function"
    },
    {
      "inputs": [],
      "name": "totalSupply",
      "outputs": [
        {
          "internalType": "uint256",
          "name": "",
          "type": "uint256"
        }
      ],
      "stateMutability": "view",
      "type": "function"
    },
    {
      "inputs": [],
      "name": "totalTicketCount",
      "outputs": [
        {
          "internalType": "uint256",
          "name": "",
          "type": "uint256"
        }
      ],
      "stateMutability": "view",
      "type": "function"
    },
    {
      "inputs": [],
      "name": "totalTickets",
      "outputs": [
        {
          "internalType": "uint256",
          "name": "",
          "type": "uint256"
        }
      ],
      "stateMutability": "view",
      "type": "function"
    },
    {
      "inputs": [
        {
          "internalType": "address",
          "name": "from",
          "type": "address"
        },
        {
          "internalType": "address",
          "name": "to",
          "type": "address"
        },
        {
          "internalType": "uint256",
          "name": "tokenId",
          "type": "uint256"
        }
      ],
      "name": "transferFrom",
      "outputs": [],
      "stateMutability": "nonpayable",
      "type": "function"
    }
  ],
  "bytecode": "0x6080604052600a805460ff19169055607f600b819055600c55655af3107a4000600d553480156200002f57600080fd5b50604080518082018252601481527f5374616b65426f7267204e4654205469636b657400000000000000000000000060208083019182528351808501909452600684526514d09391951560d21b9084015281519192916200009391600291620003b0565b508051620000a9906003906020840190620003b0565b50620000bb9150600090503362000191565b620000d7600080516020620033478339815191526000620001d4565b620001127f5a22d7548cd852c1b683d22507a2d14bc541da2a210a50aeb9e980957642e69660008051602062003347833981519152620001d4565b6200012960096200021f60201b620012ab1760201c565b6200018b6040518060400160405280601c81526020017f4465627567202d2d3e20636f756e7465722e63757272656e7428293a000000008152506200017a60096200022860201b620012b41760201c565b6200022c60201b620012b81760201c565b620004f1565b620001a882826200027d60201b620012fd1760201c565b6000828152600160209081526040909120620001cf918390620013816200031d821b17901c565b505050565b600082815260208190526040808220600101805490849055905190918391839186917fbd79b86ffe0ab8e8776151514217cd7cacd52c909f66475c3af44e129f0b00ff9190a4505050565b80546001019055565b5490565b6200027982826040516024016200024592919062000456565b60408051601f198184030181529190526020810180516001600160e01b039081166309710a9d60e41b179091526200033d16565b5050565b6000828152602081815260408083206001600160a01b038516845290915290205460ff1662000279576000828152602081815260408083206001600160a01b03851684529091529020805460ff19166001179055620002d93390565b6001600160a01b0316816001600160a01b0316837f2f8788117e7eff1d82e926ec794901d17c78024a50270940304540a733656f0d60405160405180910390a45050565b600062000334836001600160a01b0384166200035e565b90505b92915050565b80516a636f6e736f6c652e6c6f67602083016000808483855afa5050505050565b6000818152600183016020526040812054620003a75750815460018181018455600084815260208082209093018490558454848252828601909352604090209190915562000337565b50600062000337565b828054620003be90620004b4565b90600052602060002090601f016020900481019282620003e257600085556200042d565b82601f10620003fd57805160ff19168380011785556200042d565b828001600101855582156200042d579182015b828111156200042d57825182559160200191906001019062000410565b506200043b9291506200043f565b5090565b5b808211156200043b576000815560010162000440565b6040815260008351806040840152815b8181101562000485576020818701810151606086840101520162000466565b81811115620004975782606083860101525b50602083019390935250601f91909101601f191601606001919050565b600181811c90821680620004c957607f821691505b60208210811415620004eb57634e487b7160e01b600052602260045260246000fd5b50919050565b612e4680620005016000396000f3fe6080604052600436106102885760003560e01c806380f2abe31161015a578063c87b56dd116100c1578063dd11247e1161007a578063dd11247e146107b6578063e3c0ed78146107cc578063e985e9c5146107ec578063eb6ecc3614610835578063ee55efee14610857578063fb0a37b91461086c57600080fd5b8063c87b56dd146106f6578063ca15c87314610716578063cb14662214610736578063cc2258b714610756578063d547741f14610776578063d9a59e331461079657600080fd5b806391d148541161011357806391d148541461063c57806395d89b411461065c578063a217fddf14610671578063a22cb46514610686578063b88d4fde146106a6578063c605972a146106c657600080fd5b806380f2abe31461055a57806387586eab14610592578063890273fc146105c75780638bad0c0a146105e75780639010d07c146105fc57806390755c3b1461061c57600080fd5b80632f2ff15d116101fe57806342842e0e116101b757806342842e0e146104aa57806355bded7c146104ca5780636352211e146104e45780636817c76c14610504578063704802751461051a57806370a082311461053a57600080fd5b80632f2ff15d146103ff5780632fcae4421461041f57806336568abe1461043f57806339df43ff1461045f5780633cfa7e011461047f5780633d721ecd1461049557600080fd5b806314558fab1161025057806314558fab14610346578063167ff46f1461036557806318160ddd1461037a57806323b872dd1461038f578063248a9ca3146103af57806324d7806c146103df57600080fd5b806301ffc9a71461028d57806306fdde03146102c2578063081812fc146102e4578063095ea7b31461031c5780631249c58b1461033e575b600080fd5b34801561029957600080fd5b506102ad6102a83660046127d5565b61088e565b60405190151581526020015b60405180910390f35b3480156102ce57600080fd5b506102d761089f565b6040516102b99190612ad6565b3480156102f057600080fd5b506103046102ff366004612778565b610931565b6040516001600160a01b0390911681526020016102b9565b34801561032857600080fd5b5061033c61033736600461274d565b6109be565b005b61033c610ad4565b34801561035257600080fd5b50600b545b6040519081526020016102b9565b34801561037157600080fd5b5061033c610cd3565b34801561038657600080fd5b50610357610d07565b34801561039b57600080fd5b5061033c6103aa366004612603565b610d17565b3480156103bb57600080fd5b506103576103ca366004612778565b60009081526020819052604090206001015490565b3480156103eb57600080fd5b506102ad6103fa3660046125af565b610d48565b34801561040b57600080fd5b5061033c61041a366004612790565b610d54565b34801561042b57600080fd5b5061033c61043a3660046125af565b610d7a565b34801561044b57600080fd5b5061033c61045a366004612790565b610dba565b34801561046b57600080fd5b5061033c61047a3660046125af565b610e38565b34801561048b57600080fd5b50610357600c5481565b3480156104a157600080fd5b50600c54610357565b3480156104b657600080fd5b5061033c6104c5366004612603565b610e69565b3480156104d657600080fd5b50600a546102ad9060ff1681565b3480156104f057600080fd5b506103046104ff366004612778565b610e84565b34801561051057600080fd5b50610357600d5481565b34801561052657600080fd5b5061033c6105353660046125af565b610efb565b34801561054657600080fd5b506103576105553660046125af565b610f2b565b34801561056657600080fd5b506102ad6105753660046125af565b6001600160a01b03166000908152600e6020526040902054151590565b34801561059e57600080fd5b506105b26105ad36600461274d565b610fb2565b604080519283529015156020830152016102b9565b3480156105d357600080fd5b5061033c6105e23660046125af565b610ff1565b3480156105f357600080fd5b5061033c61102e565b34801561060857600080fd5b506103046106173660046127b4565b61103b565b34801561062857600080fd5b506102ad6106373660046125af565b61105a565b34801561064857600080fd5b506102ad610657366004612790565b611070565b34801561066857600080fd5b506102d7611099565b34801561067d57600080fd5b50610357600081565b34801561069257600080fd5b5061033c6106a136600461271c565b6110a8565b3480156106b257600080fd5b5061033c6106c1366004612643565b6110b3565b3480156106d257600080fd5b506102ad6106e1366004612778565b600f6020526000908152604090205460ff1681565b34801561070257600080fd5b506102d7610711366004612778565b6110eb565b34801561072257600080fd5b50610357610731366004612778565b6110f6565b34801561074257600080fd5b506102ad6107513660046125af565b61110d565b34801561076257600080fd5b5061033c6107713660046125af565b611127565b34801561078257600080fd5b5061033c610791366004612790565b611160565b3480156107a257600080fd5b5061033c6107b13660046125af565b611186565b3480156107c257600080fd5b50610357600b5481565b3480156107d857600080fd5b5061033c6107e73660046125af565b61123d565b3480156107f857600080fd5b506102ad6108073660046125cb565b6001600160a01b03918216600090815260076020908152604080832093909416825291909152205460ff1690565b34801561084157600080fd5b50610357600080516020612d9183398151915281565b34801561086357600080fd5b5061033c61127a565b34801561087857600080fd5b50610357600080516020612df183398151915281565b600061089982611396565b92915050565b6060600280546108ae90612cb9565b80601f01602080910402602001604051908101604052809291908181526020018280546108da90612cb9565b80156109275780601f106108fc57610100808354040283529160200191610927565b820191906000526020600020905b81548152906001019060200180831161090a57829003601f168201915b5050505050905090565b600061093c826113d6565b6109a25760405162461bcd60e51b815260206004820152602c60248201527f4552433732313a20617070726f76656420717565727920666f72206e6f6e657860448201526b34b9ba32b73a103a37b5b2b760a11b60648201526084015b60405180910390fd5b506000908152600660205260409020546001600160a01b031690565b60006109c982610e84565b9050806001600160a01b0316836001600160a01b03161415610a375760405162461bcd60e51b815260206004820152602160248201527f4552433732313a20617070726f76616c20746f2063757272656e74206f776e656044820152603960f91b6064820152608401610999565b336001600160a01b0382161480610a535750610a538133610807565b610ac55760405162461bcd60e51b815260206004820152603860248201527f4552433732313a20617070726f76652063616c6c6572206973206e6f74206f7760448201527f6e6572206e6f7220617070726f76656420666f7220616c6c00000000000000006064820152608401610999565b610acf83836113f3565b505050565b6000600c5411610b265760405162461bcd60e51b815260206004820152601760248201527f536f7272792c2077652061726520736f6c64206f7574210000000000000000006044820152606401610999565b600d54341015610b6a5760405162461bcd60e51b815260206004820152600f60248201526e4e6f7420656e6f756768204554482160881b6044820152606401610999565b600a5460ff16610bca5760405162461bcd60e51b815260206004820152602560248201527f53616c6573207469636b6574732c2063757272656e746c79206e6f7420737461604482015264727465642160d81b6064820152608401610999565b6000610c04610be0610bdb60095490565b611461565b604051602001610bf091906128ad565b604051602081830303815290604052611583565b9050600081604051602001610c199190612868565b6040516020818303038152906040529050610c3c33610c3760095490565b6116f7565b610c4e610c4860095490565b82611711565b336000908152600e60205260409081902081518083019092529080610c7260095490565b8152600060209182018190528354600181810186559482529082902083516002909202019081559101519101805491151560ff19909216919091179055610cbd600980546001019055565b6001600c54610ccc9190612c5f565b600c555050565b610cdc3361110d565b610cf85760405162461bcd60e51b815260040161099990612b5d565b600a805460ff19166001179055565b6000610d1260095490565b905090565b610d21338261179c565b610d3d5760405162461bcd60e51b815260040161099990612bc3565b610acf838383611882565b60006108998183611070565b600082815260208190526040902060010154610d708133611a22565b610acf8383611a86565b610d833361110d565b610d9f5760405162461bcd60e51b815260040161099990612b5d565b610db7600080516020612df183398151915282611160565b50565b6001600160a01b0381163314610e2a5760405162461bcd60e51b815260206004820152602f60248201527f416363657373436f6e74726f6c3a2063616e206f6e6c792072656e6f756e636560448201526e103937b632b9903337b91039b2b63360891b6064820152608401610999565b610e348282611aa8565b5050565b610e4133610d48565b610e5d5760405162461bcd60e51b815260040161099990612b94565b806001600160a01b0316ff5b610acf838383604051806020016040528060008152506110b3565b6000818152600460205260408120546001600160a01b0316806108995760405162461bcd60e51b815260206004820152602960248201527f4552433732313a206f776e657220717565727920666f72206e6f6e657869737460448201526832b73a103a37b5b2b760b91b6064820152608401610999565b610f0433610d48565b610f205760405162461bcd60e51b815260040161099990612b94565b610db7600082610d54565b60006001600160a01b038216610f965760405162461bcd60e51b815260206004820152602a60248201527f4552433732313a2062616c616e636520717565727920666f7220746865207a65604482015269726f206164647265737360b01b6064820152608401610999565b506001600160a01b031660009081526005602052604090205490565b600e6020528160005260406000208181548110610fce57600080fd5b60009182526020909120600290910201805460019091015490925060ff16905082565b610ffa3361110d565b6110165760405162461bcd60e51b815260040161099990612b5d565b610db7600080516020612df183398151915282610d54565b611039600033610dba565b565b60008281526001602052604081206110539083611aca565b9392505050565b6000610899600080516020612df1833981519152835b6000918252602082815260408084206001600160a01b0393909316845291905290205460ff1690565b6060600380546108ae90612cb9565b610e34338383611ad6565b6110bd338361179c565b6110d95760405162461bcd60e51b815260040161099990612bc3565b6110e584848484611ba5565b50505050565b606061089982611bd8565b600081815260016020526040812061089990611d47565b6000610899600080516020612d9183398151915283611070565b61113033610d48565b61114c5760405162461bcd60e51b815260040161099990612b94565b610db7600080516020612d91833981519152825b60008281526020819052604090206001015461117c8133611a22565b610acf8383611aa8565b61118f3361105a565b6111db5760405162461bcd60e51b815260206004820152601960248201527f5265737472696374656420746f20766f6c756e74656572732e000000000000006044820152606401610999565b6001600160a01b0381166000908152600e602052604081208054829061121157634e487b7160e01b600052603260045260246000fd5b600091825260208083206002909202909101548252600f905260409020805460ff191660011790555050565b61124633610d48565b6112625760405162461bcd60e51b815260040161099990612b94565b610db7600080516020612d9183398151915282610d54565b6112833361110d565b61129f5760405162461bcd60e51b815260040161099990612b5d565b600a805460ff19169055565b80546001019055565b5490565b610e3482826040516024016112ce929190612ae9565b60408051601f198184030181529190526020810180516001600160e01b03166309710a9d60e41b179052611d51565b6113078282611070565b610e34576000828152602081815260408083206001600160a01b03851684529091529020805460ff1916600117905561133d3390565b6001600160a01b0316816001600160a01b0316837f2f8788117e7eff1d82e926ec794901d17c78024a50270940304540a733656f0d60405160405180910390a45050565b6000611053836001600160a01b038416611d72565b60006001600160e01b031982166380ac58cd60e01b14806113c757506001600160e01b03198216635b5e139f60e01b145b80610899575061089982611dc1565b6000908152600460205260409020546001600160a01b0316151590565b600081815260066020526040902080546001600160a01b0319166001600160a01b038416908117909155819061142882610e84565b6001600160a01b03167f8c5be1e5ebec7d5bd14f71427d1e84f3dd0314c0f7b2291e5b200ac8c7c3b92560405160405180910390a45050565b6060816114855750506040805180820190915260018152600360fc1b602082015290565b8160005b81156114af578061149981612cf4565b91506114a89050600a83612c2c565b9150611489565b60008167ffffffffffffffff8111156114d857634e487b7160e01b600052604160045260246000fd5b6040519080825280601f01601f191660200182016040528015611502576020820181803683370190505b5090505b841561157b57611517600183612c5f565b9150611524600a86612d0f565b61152f906030612c14565b60f81b81838151811061155257634e487b7160e01b600052603260045260246000fd5b60200101906001600160f81b031916908160001a905350611574600a86612c2c565b9450611506565b949350505050565b8051606090806115a3575050604080516020810190915260008152919050565b600060036115b2836002612c14565b6115bc9190612c2c565b6115c7906004612c40565b905060006115d6826020612c14565b67ffffffffffffffff8111156115fc57634e487b7160e01b600052604160045260246000fd5b6040519080825280601f01601f191660200182016040528015611626576020820181803683370190505b5090506000604051806060016040528060408152602001612db1604091399050600181016020830160005b868110156116b2576003818a01810151603f601282901c8116860151600c83901c8216870151600684901c831688015192909316870151600891821b60ff94851601821b92841692909201901b91160160e01b835260049092019101611651565b5060038606600181146116cc57600281146116dd576116e9565b613d3d60f01b6001198301526116e9565b603d60f81b6000198301525b505050918152949350505050565b610e34828260405180602001604052806000815250611de6565b61171a826113d6565b61177d5760405162461bcd60e51b815260206004820152602e60248201527f45524337323155524953746f726167653a2055524920736574206f66206e6f6e60448201526d32bc34b9ba32b73a103a37b5b2b760911b6064820152608401610999565b60008281526008602090815260409091208251610acf92840190612516565b60006117a7826113d6565b6118085760405162461bcd60e51b815260206004820152602c60248201527f4552433732313a206f70657261746f7220717565727920666f72206e6f6e657860448201526b34b9ba32b73a103a37b5b2b760a11b6064820152608401610999565b600061181383610e84565b9050806001600160a01b0316846001600160a01b0316148061184e5750836001600160a01b031661184384610931565b6001600160a01b0316145b8061157b57506001600160a01b0380821660009081526007602090815260408083209388168352929052205460ff1661157b565b826001600160a01b031661189582610e84565b6001600160a01b0316146118fd5760405162461bcd60e51b815260206004820152602960248201527f4552433732313a207472616e73666572206f6620746f6b656e2074686174206960448201526839903737ba1037bbb760b91b6064820152608401610999565b6001600160a01b03821661195f5760405162461bcd60e51b8152602060048201526024808201527f4552433732313a207472616e7366657220746f20746865207a65726f206164646044820152637265737360e01b6064820152608401610999565b61196a6000826113f3565b6001600160a01b0383166000908152600560205260408120805460019290611993908490612c5f565b90915550506001600160a01b03821660009081526005602052604081208054600192906119c1908490612c14565b909155505060008181526004602052604080822080546001600160a01b0319166001600160a01b0386811691821790925591518493918716917fddf252ad1be2c89b69c2b068fc378daa952ba7f163c4a11628f55a4df523b3ef91a4505050565b611a2c8282611070565b610e3457611a44816001600160a01b03166014611e19565b611a4f836020611e19565b604051602001611a60929190612a24565b60408051601f198184030181529082905262461bcd60e51b825261099991600401612ad6565b611a9082826112fd565b6000828152600160205260409020610acf9082611381565b611ab28282611ffb565b6000828152600160205260409020610acf9082612060565b60006110538383612075565b816001600160a01b0316836001600160a01b03161415611b385760405162461bcd60e51b815260206004820152601960248201527f4552433732313a20617070726f766520746f2063616c6c6572000000000000006044820152606401610999565b6001600160a01b03838116600081815260076020908152604080832094871680845294825291829020805460ff191686151590811790915591519182527f17307eab39ab6107e8899845ad3d59bd9653f200f220920489ca2b5937696c31910160405180910390a3505050565b611bb0848484611882565b611bbc848484846120ad565b6110e55760405162461bcd60e51b815260040161099990612b0b565b6060611be3826113d6565b611c495760405162461bcd60e51b815260206004820152603160248201527f45524337323155524953746f726167653a2055524920717565727920666f72206044820152703737b732bc34b9ba32b73a103a37b5b2b760791b6064820152608401610999565b60008281526008602052604081208054611c6290612cb9565b80601f0160208091040260200160405190810160405280929190818152602001828054611c8e90612cb9565b8015611cdb5780601f10611cb057610100808354040283529160200191611cdb565b820191906000526020600020905b815481529060010190602001808311611cbe57829003601f168201915b505050505090506000611cf960408051602081019091526000815290565b9050805160001415611d0c575092915050565b815115611d3e578082604051602001611d26929190612839565b60405160208183030381529060405292505050919050565b61157b846121ba565b6000610899825490565b80516a636f6e736f6c652e6c6f67602083016000808483855afa5050505050565b6000818152600183016020526040812054611db957508154600181810184556000848152602080822090930184905584548482528286019093526040902091909155610899565b506000610899565b60006001600160e01b03198216635a05180f60e01b1480610899575061089982612291565b611df083836122c6565b611dfd60008484846120ad565b610acf5760405162461bcd60e51b815260040161099990612b0b565b60606000611e28836002612c40565b611e33906002612c14565b67ffffffffffffffff811115611e5957634e487b7160e01b600052604160045260246000fd5b6040519080825280601f01601f191660200182016040528015611e83576020820181803683370190505b509050600360fc1b81600081518110611eac57634e487b7160e01b600052603260045260246000fd5b60200101906001600160f81b031916908160001a905350600f60fb1b81600181518110611ee957634e487b7160e01b600052603260045260246000fd5b60200101906001600160f81b031916908160001a9053506000611f0d846002612c40565b611f18906001612c14565b90505b6001811115611fac576f181899199a1a9b1b9c1cb0b131b232b360811b85600f1660108110611f5a57634e487b7160e01b600052603260045260246000fd5b1a60f81b828281518110611f7e57634e487b7160e01b600052603260045260246000fd5b60200101906001600160f81b031916908160001a90535060049490941c93611fa581612ca2565b9050611f1b565b5083156110535760405162461bcd60e51b815260206004820181905260248201527f537472696e67733a20686578206c656e67746820696e73756666696369656e746044820152606401610999565b6120058282611070565b15610e34576000828152602081815260408083206001600160a01b0385168085529252808320805460ff1916905551339285917ff6391f5c32d9c69d2a47ea670b442974b53935d1edc7fd64eb21e047a839171b9190a45050565b6000611053836001600160a01b0384166123f9565b600082600001828154811061209a57634e487b7160e01b600052603260045260246000fd5b9060005260206000200154905092915050565b60006001600160a01b0384163b156121af57604051630a85bd0160e11b81526001600160a01b0385169063150b7a02906120f1903390899088908890600401612a99565b602060405180830381600087803b15801561210b57600080fd5b505af192505050801561213b575060408051601f3d908101601f19168201909252612138918101906127f1565b60015b612195573d808015612169576040519150601f19603f3d011682016040523d82523d6000602084013e61216e565b606091505b50805161218d5760405162461bcd60e51b815260040161099990612b0b565b805181602001fd5b6001600160e01b031916630a85bd0160e11b14905061157b565b506001949350505050565b60606121c5826113d6565b6122295760405162461bcd60e51b815260206004820152602f60248201527f4552433732314d657461646174613a2055524920717565727920666f72206e6f60448201526e3732bc34b9ba32b73a103a37b5b2b760891b6064820152608401610999565b600061224060408051602081019091526000815290565b905060008151116122605760405180602001604052806000815250611053565b8061226a84611461565b60405160200161227b929190612839565b6040516020818303038152906040529392505050565b60006001600160e01b03198216637965db0b60e01b148061089957506301ffc9a760e01b6001600160e01b0319831614610899565b6001600160a01b03821661231c5760405162461bcd60e51b815260206004820181905260248201527f4552433732313a206d696e7420746f20746865207a65726f20616464726573736044820152606401610999565b612325816113d6565b156123725760405162461bcd60e51b815260206004820152601c60248201527f4552433732313a20746f6b656e20616c7265616479206d696e746564000000006044820152606401610999565b6001600160a01b038216600090815260056020526040812080546001929061239b908490612c14565b909155505060008181526004602052604080822080546001600160a01b0319166001600160a01b03861690811790915590518392907fddf252ad1be2c89b69c2b068fc378daa952ba7f163c4a11628f55a4df523b3ef908290a45050565b6000818152600183016020526040812054801561250c57600061241d600183612c5f565b855490915060009061243190600190612c5f565b90508181146124b257600086600001828154811061245f57634e487b7160e01b600052603260045260246000fd5b906000526020600020015490508087600001848154811061249057634e487b7160e01b600052603260045260246000fd5b6000918252602080832090910192909255918252600188019052604090208390555b85548690806124d157634e487b7160e01b600052603160045260246000fd5b600190038181906000526020600020016000905590558560010160008681526020019081526020016000206000905560019350505050610899565b6000915050610899565b82805461252290612cb9565b90600052602060002090601f016020900481019282612544576000855561258a565b82601f1061255d57805160ff191683800117855561258a565b8280016001018555821561258a579182015b8281111561258a57825182559160200191906001019061256f565b5061259692915061259a565b5090565b5b80821115612596576000815560010161259b565b6000602082840312156125c0578081fd5b813561105381612d65565b600080604083850312156125dd578081fd5b82356125e881612d65565b915060208301356125f881612d65565b809150509250929050565b600080600060608486031215612617578081fd5b833561262281612d65565b9250602084013561263281612d65565b929592945050506040919091013590565b60008060008060808587031215612658578081fd5b843561266381612d65565b9350602085013561267381612d65565b925060408501359150606085013567ffffffffffffffff80821115612696578283fd5b818701915087601f8301126126a9578283fd5b8135818111156126bb576126bb612d4f565b604051601f8201601f19908116603f011681019083821181831017156126e3576126e3612d4f565b816040528281528a60208487010111156126fb578586fd5b82602086016020830137918201602001949094529598949750929550505050565b6000806040838503121561272e578182fd5b823561273981612d65565b9150602083013580151581146125f8578182fd5b6000806040838503121561275f578182fd5b823561276a81612d65565b946020939093013593505050565b600060208284031215612789578081fd5b5035919050565b600080604083850312156127a2578182fd5b8235915060208301356125f881612d65565b600080604083850312156127c6578182fd5b50508035926020909101359150565b6000602082840312156127e6578081fd5b813561105381612d7a565b600060208284031215612802578081fd5b815161105381612d7a565b60008151808452612825816020860160208601612c76565b601f01601f19169290920160200192915050565b6000835161284b818460208801612c76565b83519083019061285f818360208801612c76565b01949350505050565b7f646174613a6170706c69636174696f6e2f6a736f6e3b6261736536342c0000008152600082516128a081601d850160208701612c76565b91909101601d0192915050565b7f7b20226e616d65223a20225374616b65426f72672054616c6b73204e46542d5481526669636b6574202360c81b6020820152600082516128f5816027850160208701612c76565b7f222c20226465736372697074696f6e223a20225374616b65426f72672054616c60279390910192830152506f035b99027232a16aa34b1b5b2ba1116160851b60478201527f22747261697473223a205b7b202274726169745f74797065223a20224368656360578201527f6b656420496e222c202276616c7565223a202266616c736522207d2c207b202260778201527f74726169745f74797065223a2022507572636861736564222c202276616c756560978201526d0111d10113a393ab291103eae96160951b60b78201527f22696d616765223a2022697066733a2f2f516d625a75556b4d4b79587261355560c58201527f325456714354617053336a7354677663787547594c4766444639394753756a2260e582015261207d60f01b61010582015261010701919050565b7f416363657373436f6e74726f6c3a206163636f756e7420000000000000000000815260008351612a5c816017850160208801612c76565b7001034b99036b4b9b9b4b733903937b6329607d1b6017918401918201528351612a8d816028840160208801612c76565b01602801949350505050565b6001600160a01b0385811682528416602082015260408101839052608060608201819052600090612acc9083018461280d565b9695505050505050565b602081526000611053602083018461280d565b604081526000612afc604083018561280d565b90508260208301529392505050565b60208082526032908201527f4552433732313a207472616e7366657220746f206e6f6e20455243373231526560408201527131b2b4bb32b91034b6b83632b6b2b73a32b960711b606082015260800190565b6020808252601a908201527f5265737472696374656420746f206576656e7441646d696e732e000000000000604082015260600190565b6020808252601590820152742932b9ba3934b1ba32b2103a379030b236b4b7399760591b604082015260600190565b60208082526031908201527f4552433732313a207472616e736665722063616c6c6572206973206e6f74206f6040820152701ddb995c881b9bdc88185c1c1c9bdd9959607a1b606082015260800190565b60008219821115612c2757612c27612d23565b500190565b600082612c3b57612c3b612d39565b500490565b6000816000190483118215151615612c5a57612c5a612d23565b500290565b600082821015612c7157612c71612d23565b500390565b60005b83811015612c91578181015183820152602001612c79565b838111156110e55750506000910152565b600081612cb157612cb1612d23565b506000190190565b600181811c90821680612ccd57607f821691505b60208210811415612cee57634e487b7160e01b600052602260045260246000fd5b50919050565b6000600019821415612d0857612d08612d23565b5060010190565b600082612d1e57612d1e612d39565b500690565b634e487b7160e01b600052601160045260246000fd5b634e487b7160e01b600052601260045260246000fd5b634e487b7160e01b600052604160045260246000fd5b6001600160a01b0381168114610db757600080fd5b6001600160e01b031981168114610db757600080fdfeb5b47644c905f9c9f971bbb9c430fe3b99fe3674e04e8312af23bbb168c5deb04142434445464748494a4b4c4d4e4f505152535455565758595a6162636465666768696a6b6c6d6e6f707172737475767778797a303132333435363738392b2f5a22d7548cd852c1b683d22507a2d14bc541da2a210a50aeb9e980957642e696a2646970667358221220fd4097fac17b079a36c2e44c466d97500b836d63e2695c2636da33142311558a64736f6c63430008040033b5b47644c905f9c9f971bbb9c430fe3b99fe3674e04e8312af23bbb168c5deb0",
  "linkReferences": {},
  "deployedLinkReferences": {}
}